{"abi":[{"type":"constructor","inputs":[{"name":"_name","type":"string","internalType":"string"},{"name":"_symbol","type":"string","internalType":"string"},{"name":"_decimals","type":"uint8","internalType":"uint8"},{"name":"_initialSupply","type":"uint256","internalType":"uint256"}],"stateMutability":"nonpayable"},{"type":"function","name":"DECIMALS","inputs":[],"outputs":[{"name":"","type":"uint8","internalType":"uint8"}],"stateMutability":"view"},{"type":"function","name":"allowance","inputs":[{"name":"owner","type":"address","internalType":"address"},{"name":"spender","type":"address","internalType":"address"}],"outputs":[{"name":"","type":"uint256","internalType":"uint256"}],"stateMutability":"view"},{"type":"function","name":"approve","inputs":[{"name":"spender","type":"address","internalType":"address"},{"name":"value","type":"uint256","internalType":"uint256"}],"outputs":[{"name":"","type":"bool","internalType":"bool"}],"stateMutability":"nonpayable"},{"type":"function","name":"balanceOf","inputs":[{"name":"account","type":"address","internalType":"address"}],"outputs":[{"name":"","type":"uint256","internalType":"uint256"}],"stateMutability":"view"},{"type":"function","name":"burn","inputs":[{"name":"value","type":"uint256","internalType":"uint256"}],"outputs":[],"stateMutability":"nonpayable"},{"type":"function","name":"burn","inputs":[{"name":"_from","type":"address","internalType":"address"},{"name":"_amount","type":"uint256","internalType":"uint256"}],"outputs":[],"stateMutability":"nonpayable"},{"type":"function","name":"burnFrom","inputs":[{"name":"account","type":"address","internalType":"address"},{"name":"value","type":"uint256","internalType":"uint256"}],"outputs":[],"stateMutability":"nonpayable"},{"type":"function","name":"decimals","inputs":[],"outputs":[{"name":"","type":"uint8","internalType":"uint8"}],"stateMutability":"view"},{"type":"function","name":"mint","inputs":[{"name":"_to","type":"address","internalType":"address"},{"name":"_amount","type":"uint256","internalType":"uint256"}],"outputs":[],"stateMutability":"nonpayable"},{"type":"function","name":"name","inputs":[],"outputs":[{"name":"","type":"string","internalType":"string"}],"stateMutability":"view"},{"type":"function","name":"owner","inputs":[],"outputs":[{"name":"","type":"address","internalType":"address"}],"stateMutability":"view"},{"type":"function","name":"pause","inputs":[],"outputs":[],"stateMutability":"nonpayable"},{"type":"function","name":"paused","inputs":[],"outputs":[{"name":"","type":"bool","internalType":"bool"}],"stateMutability":"view"},{"type":"function","name":"renounceOwnership","inputs":[],"outputs":[],"stateMutability":"nonpayable"},{"type":"function","name":"symbol","inputs":[],"outputs":[{"name":"","type":"string","internalType":"string"}],"stateMutability":"view"},{"type":"function","name":"totalSupply","inputs":[],"outputs":[{"name":"","type":"uint256","internalType":"uint256"}],"stateMutability":"view"},{"type":"function","name":"transfer","inputs":[{"name":"to","type":"address","internalType":"address"},{"name":"value","type":"uint256","internalType":"uint256"}],"outputs":[{"name":"","type":"bool","internalType":"bool"}],"stateMutability":"nonpayable"},{"type":"function","name":"transferFrom","inputs":[{"name":"from","type":"address","internalType":"address"},{"name":"to","type":"address","internalType":"address"},{"name":"value","type":"uint256","internalType":"uint256"}],"outputs":[{"name":"","type":"bool","internalType":"bool"}],"stateMutability":"nonpayable"},{"type":"function","name":"transferOwnership","inputs":[{"name":"newOwner","type":"address","internalType":"address"}],"outputs":[],"stateMutability":"nonpayable"},{"type":"function","name":"unpause","inputs":[],"outputs":[],"stateMutability":"nonpayable"},{"type":"event","name":"Approval","inputs":[{"name":"owner","type":"address","indexed":true,"internalType":"address"},{"name":"spender","type":"address","indexed":true,"internalType":"address"},{"name":"value","type":"uint256","indexed":false,"internalType":"uint256"}],"anonymous":false},{"type":"event","name":"OwnershipTransferred","inputs":[{"name":"previousOwner","type":"address","indexed":true,"internalType":"address"},{"name":"newOwner","type":"address","indexed":true,"internalType":"address"}],"anonymous":false},{"type":"event","name":"Paused","inputs":[{"name":"account","type":"address","indexed":false,"internalType":"address"}],"anonymous":false},{"type":"event","name":"Transfer","inputs":[{"name":"from","type":"address","indexed":true,"internalType":"address"},{"name":"to","type":"address","indexed":true,"internalType":"address"},{"name":"value","type":"uint256","indexed":false,"internalType":"uint256"}],"anonymous":false},{"type":"event","name":"Unpaused","inputs":[{"name":"account","type":"address","indexed":false,"internalType":"address"}],"anonymous":false},{"type":"error","name":"ERC20InsufficientAllowance","inputs":[{"name":"spender","type":"address","internalType":"address"},{"name":"allowance","type":"uint256","internalType":"uint256"},{"name":"needed","type":"uint256","internalType":"uint256"}]},{"type":"error","name":"ERC20InsufficientBalance","inputs":[{"name":"sender","type":"address","internalType":"address"},{"name":"balance","type":"uint256","internalType":"uint256"},{"name":"needed","type":"uint256","internalType":"uint256"}]},{"type":"error","name":"ERC20InvalidApprover","inputs":[{"name":"approver","type":"address","internalType":"address"}]},{"type":"error","name":"ERC20InvalidReceiver","inputs":[{"name":"receiver","type":"address","internalType":"address"}]},{"type":"error","name":"ERC20InvalidSender","inputs":[{"name":"sender","type":"address","internalType":"address"}]},{"type":"error","name":"ERC20InvalidSpender","inputs":[{"name":"spender","type":"address","internalType":"address"}]},{"type":"error","name":"EnforcedPause","inputs":[]},{"type":"error","name":"ExpectedPause","inputs":[]},{"type":"error","name":"OwnableInvalidOwner","inputs":[{"name":"owner","type":"address","internalType":"address"}]},{"type":"error","name":"OwnableUnauthorizedAccount","inputs":[{"name":"account","type":"address","internalType":"address"}]}],"bytecode":{"object":"0x60a060405234801561000f575f80fd5b50604051612063380380612063833981810160405281019061003191906106c5565b33848481600390816100439190610965565b5080600490816100539190610965565b5050505f60055f6101000a81548160ff0219169083151502179055505f73ffffffffffffffffffffffffffffffffffffffff168173ffffffffffffffffffffffffffffffffffffffff16036100df575f6040517f1e4fbdf70000000000000000000000000000000000000000000000000000000081526004016100d69190610a73565b60405180910390fd5b6100ee8161011660201b60201c565b506100ff33826101db60201b60201c565b8160ff1660808160ff168152505050505050610b49565b5f600560019054906101000a900473ffffffffffffffffffffffffffffffffffffffff16905081600560016101000a81548173ffffffffffffffffffffffffffffffffffffffff021916908373ffffffffffffffffffffffffffffffffffffffff1602179055508173ffffffffffffffffffffffffffffffffffffffff168173ffffffffffffffffffffffffffffffffffffffff167f8be0079c531659141344cd1fd0a4f28419497f9722a3daafe3b4186f6b6457e060405160405180910390a35050565b5f73ffffffffffffffffffffffffffffffffffffffff168273ffffffffffffffffffffffffffffffffffffffff160361024b575f6040517fec442f050000000000000000000000000000000000000000000000000000000081526004016102429190610a73565b60405180910390fd5b61025c5f838361026060201b60201c565b5050565b61027183838361027660201b60201c565b505050565b61028461029a60201b60201c565b6102958383836102e160201b60201c565b505050565b6102a86104fa60201b60201c565b156102df576040517fd93c066500000000000000000000000000000000000000000000000000000000815260040160405180910390fd5b565b5f73ffffffffffffffffffffffffffffffffffffffff168373ffffffffffffffffffffffffffffffffffffffff1603610331578060025f8282546103259190610ab9565b925050819055506103ff565b5f805f8573ffffffffffffffffffffffffffffffffffffffff1673ffffffffffffffffffffffffffffffffffffffff1681526020019081526020015f20549050818110156103ba578381836040517fe450d38c0000000000000000000000000000000000000000000000000000000081526004016103b193929190610afb565b60405180910390fd5b8181035f808673ffffffffffffffffffffffffffffffffffffffff1673ffffffffffffffffffffffffffffffffffffffff1681526020019081526020015f2081905550505b5f73ffffffffffffffffffffffffffffffffffffffff168273ffffffffffffffffffffffffffffffffffffffff1603610446578060025f8282540392505081905550610490565b805f808473ffffffffffffffffffffffffffffffffffffffff1673ffffffffffffffffffffffffffffffffffffffff1681526020019081526020015f205f82825401925050819055505b8173ffffffffffffffffffffffffffffffffffffffff168373ffffffffffffffffffffffffffffffffffffffff167fddf252ad1be2c89b69c2b068fc378daa952ba7f163c4a11628f55a4df523b3ef836040516104ed9190610b30565b60405180910390a3505050565b5f60055f9054906101000a900460ff16905090565b5f604051905090565b5f80fd5b5f80fd5b5f80fd5b5f80fd5b5f601f19601f8301169050919050565b7f4e487b71000000000000000000000000000000000000000000000000000000005f52604160045260245ffd5b61056e82610528565b810181811067ffffffffffffffff8211171561058d5761058c610538565b5b80604052505050565b5f61059f61050f565b90506105ab8282610565565b919050565b5f67ffffffffffffffff8211156105ca576105c9610538565b5b6105d382610528565b9050602081019050919050565b8281835e5f83830152505050565b5f6106006105fb846105b0565b610596565b90508281526020810184848401111561061c5761061b610524565b5b6106278482856105e0565b509392505050565b5f82601f83011261064357610642610520565b5b81516106538482602086016105ee565b91505092915050565b5f60ff82169050919050565b6106718161065c565b811461067b575f80fd5b50565b5f8151905061068c81610668565b92915050565b5f819050919050565b6106a481610692565b81146106ae575f80fd5b50565b5f815190506106bf8161069b565b92915050565b5f805f80608085870312156106dd576106dc610518565b5b5f85015167ffffffffffffffff8111156106fa576106f961051c565b5b6107068782880161062f565b945050602085015167ffffffffffffffff8111156107275761072661051c565b5b6107338782880161062f565b93505060406107448782880161067e565b9250506060610755878288016106b1565b91505092959194509250565b5f81519050919050565b7f4e487b71000000000000000000000000000000000000000000000000000000005f52602260045260245ffd5b5f60028204905060018216806107af57607f821691505b6020821081036107c2576107c161076b565b5b50919050565b5f819050815f5260205f209050919050565b5f6020601f8301049050919050565b5f82821b905092915050565b5f600883026108247fffffffffffffffffffffffffffffffffffffffffffffffffffffffffffffffff826107e9565b61082e86836107e9565b95508019841693508086168417925050509392505050565b5f819050919050565b5f61086961086461085f84610692565b610846565b610692565b9050919050565b5f819050919050565b6108828361084f565b61089661088e82610870565b8484546107f5565b825550505050565b5f90565b6108aa61089e565b6108b5818484610879565b505050565b5b818110156108d8576108cd5f826108a2565b6001810190506108bb565b5050565b601f82111561091d576108ee816107c8565b6108f7846107da565b81016020851015610906578190505b61091a610912856107da565b8301826108ba565b50505b505050565b5f82821c905092915050565b5f61093d5f1984600802610922565b1980831691505092915050565b5f610955838361092e565b9150826002028217905092915050565b61096e82610761565b67ffffffffffffffff81111561098757610986610538565b5b6109918254610798565b61099c8282856108dc565b5f60209050601f8311600181146109cd575f84156109bb578287015190505b6109c5858261094a565b865550610a2c565b601f1984166109db866107c8565b5f5b82811015610a02578489015182556001820191506020850194506020810190506109dd565b86831015610a1f5784890151610a1b601f89168261092e565b8355505b6001600288020188555050505b505050505050565b5f73ffffffffffffffffffffffffffffffffffffffff82169050919050565b5f610a5d82610a34565b9050919050565b610a6d81610a53565b82525050565b5f602082019050610a865f830184610a64565b92915050565b7f4e487b71000000000000000000000000000000000000000000000000000000005f52601160045260245ffd5b5f610ac382610692565b9150610ace83610692565b9250828201905080821115610ae657610ae5610a8c565b5b92915050565b610af581610692565b82525050565b5f606082019050610b0e5f830186610a64565b610b1b6020830185610aec565b610b286040830184610aec565b949350505050565b5f602082019050610b435f830184610aec565b92915050565b6080516114fb610b685f395f818161048501526104aa01526114fb5ff3fe608060405234801561000f575f80fd5b506004361061012a575f3560e01c806370a08231116100ab57806395d89b411161006f57806395d89b41146102e45780639dc29fac14610302578063a9059cbb1461031e578063dd62ed3e1461034e578063f2fde38b1461037e5761012a565b806370a0823114610266578063715018a61461029657806379cc6790146102a05780638456cb59146102bc5780638da5cb5b146102c65761012a565b8063313ce567116100f2578063313ce567146101e85780633f4ba83a1461020657806340c10f191461021057806342966c681461022c5780635c975abb146102485761012a565b806306fdde031461012e578063095ea7b31461014c57806318160ddd1461017c57806323b872dd1461019a5780632e0f2625146101ca575b5f80fd5b61013661039a565b6040516101439190611149565b60405180910390f35b610166600480360381019061016191906111fa565b61042a565b6040516101739190611252565b60405180910390f35b61018461044c565b604051610191919061127a565b60405180910390f35b6101b460048036038101906101af9190611293565b610455565b6040516101c19190611252565b60405180910390f35b6101d2610483565b6040516101df91906112fe565b60405180910390f35b6101f06104a7565b6040516101fd91906112fe565b60405180910390f35b61020e6104ce565b005b61022a600480360381019061022591906111fa565b6104e0565b005b61024660048036038101906102419190611317565b6104f6565b005b61025061050a565b60405161025d9190611252565b60405180910390f35b610280600480360381019061027b9190611342565b61051f565b60405161028d919061127a565b60405180910390f35b61029e610564565b005b6102ba60048036038101906102b591906111fa565b610577565b005b6102c4610597565b005b6102ce6105a9565b6040516102db919061137c565b60405180910390f35b6102ec6105d2565b6040516102f99190611149565b60405180910390f35b61031c600480360381019061031791906111fa565b610662565b005b610338600480360381019061033391906111fa565b610678565b6040516103459190611252565b60405180910390f35b61036860048036038101906103639190611395565b61069a565b604051610375919061127a565b60405180910390f35b61039860048036038101906103939190611342565b61071c565b005b6060600380546103a990611400565b80601f01602080910402602001604051908101604052809291908181526020018280546103d590611400565b80156104205780601f106103f757610100808354040283529160200191610420565b820191905f5260205f20905b81548152906001019060200180831161040357829003601f168201915b5050505050905090565b5f806104346107a0565b90506104418185856107a7565b600191505092915050565b5f600254905090565b5f8061045f6107a0565b905061046c8582856107b9565b61047785858561084b565b60019150509392505050565b7f000000000000000000000000000000000000000000000000000000000000000081565b5f7f0000000000000000000000000000000000000000000000000000000000000000905090565b6104d661093b565b6104de6109c2565b565b6104e861093b565b6104f28282610a23565b5050565b6105076105016107a0565b82610aa2565b50565b5f60055f9054906101000a900460ff16905090565b5f805f8373ffffffffffffffffffffffffffffffffffffffff1673ffffffffffffffffffffffffffffffffffffffff1681526020019081526020015f20549050919050565b61056c61093b565b6105755f610b21565b565b610589826105836107a0565b836107b9565b6105938282610aa2565b5050565b61059f61093b565b6105a7610be6565b565b5f600560019054906101000a900473ffffffffffffffffffffffffffffffffffffffff16905090565b6060600480546105e190611400565b80601f016020809104026020016040519081016040528092919081815260200182805461060d90611400565b80156106585780601f1061062f57610100808354040283529160200191610658565b820191905f5260205f20905b81548152906001019060200180831161063b57829003601f168201915b5050505050905090565b61066a61093b565b6106748282610aa2565b5050565b5f806106826107a0565b905061068f81858561084b565b600191505092915050565b5f60015f8473ffffffffffffffffffffffffffffffffffffffff1673ffffffffffffffffffffffffffffffffffffffff1681526020019081526020015f205f8373ffffffffffffffffffffffffffffffffffffffff1673ffffffffffffffffffffffffffffffffffffffff1681526020019081526020015f2054905092915050565b61072461093b565b5f73ffffffffffffffffffffffffffffffffffffffff168173ffffffffffffffffffffffffffffffffffffffff1603610794575f6040517f1e4fbdf700000000000000000000000000000000000000000000000000000000815260040161078b919061137c565b60405180910390fd5b61079d81610b21565b50565b5f33905090565b6107b48383836001610c48565b505050565b5f6107c4848461069a565b90507fffffffffffffffffffffffffffffffffffffffffffffffffffffffffffffffff81146108455781811015610836578281836040517ffb8f41b200000000000000000000000000000000000000000000000000000000815260040161082d93929190611430565b60405180910390fd5b61084484848484035f610c48565b5b50505050565b5f73ffffffffffffffffffffffffffffffffffffffff168373ffffffffffffffffffffffffffffffffffffffff16036108bb575f6040517f96c6fd1e0000000000000000000000000000000000000000000000000000000081526004016108b2919061137c565b60405180910390fd5b5f73ffffffffffffffffffffffffffffffffffffffff168273ffffffffffffffffffffffffffffffffffffffff160361092b575f6040517fec442f05000000000000000000000000000000000000000000000000000000008152600401610922919061137c565b60405180910390fd5b610936838383610e17565b505050565b6109436107a0565b73ffffffffffffffffffffffffffffffffffffffff166109616105a9565b73ffffffffffffffffffffffffffffffffffffffff16146109c0576109846107a0565b6040517f118cdaa70000000000000000000000000000000000000000000000000000000081526004016109b7919061137c565b60405180910390fd5b565b6109ca610e27565b5f60055f6101000a81548160ff0219169083151502179055507f5db9ee0a495bf2e6ff9c91a7834c1ba4fdd244a5e8aa4e537bd38aeae4b073aa610a0c6107a0565b604051610a19919061137c565b60405180910390a1565b5f73ffffffffffffffffffffffffffffffffffffffff168273ffffffffffffffffffffffffffffffffffffffff1603610a93575f6040517fec442f05000000000000000000000000000000000000000000000000000000008152600401610a8a919061137c565b60405180910390fd5b610a9e5f8383610e17565b5050565b5f73ffffffffffffffffffffffffffffffffffffffff168273ffffffffffffffffffffffffffffffffffffffff1603610b12575f6040517f96c6fd1e000000000000000000000000000000000000000000000000000000008152600401610b09919061137c565b60405180910390fd5b610b1d825f83610e17565b5050565b5f600560019054906101000a900473ffffffffffffffffffffffffffffffffffffffff16905081600560016101000a81548173ffffffffffffffffffffffffffffffffffffffff021916908373ffffffffffffffffffffffffffffffffffffffff1602179055508173ffffffffffffffffffffffffffffffffffffffff168173ffffffffffffffffffffffffffffffffffffffff167f8be0079c531659141344cd1fd0a4f28419497f9722a3daafe3b4186f6b6457e060405160405180910390a35050565b610bee610e67565b600160055f6101000a81548160ff0219169083151502179055507f62e78cea01bee320cd4e420270b5ea74000d11b0c9f74754ebdbfc544b05a258610c316107a0565b604051610c3e919061137c565b60405180910390a1565b5f73ffffffffffffffffffffffffffffffffffffffff168473ffffffffffffffffffffffffffffffffffffffff1603610cb8575f6040517fe602df05000000000000000000000000000000000000000000000000000000008152600401610caf919061137c565b60405180910390fd5b5f73ffffffffffffffffffffffffffffffffffffffff168373ffffffffffffffffffffffffffffffffffffffff1603610d28575f6040517f94280d62000000000000000000000000000000000000000000000000000000008152600401610d1f919061137c565b60405180910390fd5b8160015f8673ffffffffffffffffffffffffffffffffffffffff1673ffffffffffffffffffffffffffffffffffffffff1681526020019081526020015f205f8573ffffffffffffffffffffffffffffffffffffffff1673ffffffffffffffffffffffffffffffffffffffff1681526020019081526020015f20819055508015610e11578273ffffffffffffffffffffffffffffffffffffffff168473ffffffffffffffffffffffffffffffffffffffff167f8c5be1e5ebec7d5bd14f71427d1e84f3dd0314c0f7b2291e5b200ac8c7c3b92584604051610e08919061127a565b60405180910390a35b50505050565b610e22838383610ea8565b505050565b610e2f61050a565b610e65576040517f8dfc202b00000000000000000000000000000000000000000000000000000000815260040160405180910390fd5b565b610e6f61050a565b15610ea6576040517fd93c066500000000000000000000000000000000000000000000000000000000815260040160405180910390fd5b565b610eb0610e67565b610ebb838383610ec0565b505050565b5f73ffffffffffffffffffffffffffffffffffffffff168373ffffffffffffffffffffffffffffffffffffffff1603610f10578060025f828254610f049190611492565b92505081905550610fde565b5f805f8573ffffffffffffffffffffffffffffffffffffffff1673ffffffffffffffffffffffffffffffffffffffff1681526020019081526020015f2054905081811015610f99578381836040517fe450d38c000000000000000000000000000000000000000000000000000000008152600401610f9093929190611430565b60405180910390fd5b8181035f808673ffffffffffffffffffffffffffffffffffffffff1673ffffffffffffffffffffffffffffffffffffffff1681526020019081526020015f2081905550505b5f73ffffffffffffffffffffffffffffffffffffffff168273ffffffffffffffffffffffffffffffffffffffff1603611025578060025f828254039250508190555061106f565b805f808473ffffffffffffffffffffffffffffffffffffffff1673ffffffffffffffffffffffffffffffffffffffff1681526020019081526020015f205f82825401925050819055505b8173ffffffffffffffffffffffffffffffffffffffff168373ffffffffffffffffffffffffffffffffffffffff167fddf252ad1be2c89b69c2b068fc378daa952ba7f163c4a11628f55a4df523b3ef836040516110cc919061127a565b60405180910390a3505050565b5f81519050919050565b5f82825260208201905092915050565b8281835e5f83830152505050565b5f601f19601f8301169050919050565b5f61111b826110d9565b61112581856110e3565b93506111358185602086016110f3565b61113e81611101565b840191505092915050565b5f6020820190508181035f8301526111618184611111565b905092915050565b5f80fd5b5f73ffffffffffffffffffffffffffffffffffffffff82169050919050565b5f6111968261116d565b9050919050565b6111a68161118c565b81146111b0575f80fd5b50565b5f813590506111c18161119d565b92915050565b5f819050919050565b6111d9816111c7565b81146111e3575f80fd5b50565b5f813590506111f4816111d0565b92915050565b5f80604083850312156112105761120f611169565b5b5f61121d858286016111b3565b925050602061122e858286016111e6565b9150509250929050565b5f8115159050919050565b61124c81611238565b82525050565b5f6020820190506112655f830184611243565b92915050565b611274816111c7565b82525050565b5f60208201905061128d5f83018461126b565b92915050565b5f805f606084860312156112aa576112a9611169565b5b5f6112b7868287016111b3565b93505060206112c8868287016111b3565b92505060406112d9868287016111e6565b9150509250925092565b5f60ff82169050919050565b6112f8816112e3565b82525050565b5f6020820190506113115f8301846112ef565b92915050565b5f6020828403121561132c5761132b611169565b5b5f611339848285016111e6565b91505092915050565b5f6020828403121561135757611356611169565b5b5f611364848285016111b3565b91505092915050565b6113768161118c565b82525050565b5f60208201905061138f5f83018461136d565b92915050565b5f80604083850312156113ab576113aa611169565b5b5f6113b8858286016111b3565b92505060206113c9858286016111b3565b9150509250929050565b7f4e487b71000000000000000000000000000000000000000000000000000000005f52602260045260245ffd5b5f600282049050600182168061141757607f821691505b60208210810361142a576114296113d3565b5b50919050565b5f6060820190506114435f83018661136d565b611450602083018561126b565b61145d604083018461126b565b949350505050565b7f4e487b71000000000000000000000000000000000000000000000000000000005f52601160045260245ffd5b5f61149c826111c7565b91506114a7836111c7565b92508282019050808211156114bf576114be611465565b5b9291505056fea264697066735822122075f1e3bb254ff12579ccf11f80ad97ee43b0500ba2e791dfb0e82028ffc8927564736f6c634300081a0033","linkReferences":{}},"methodIdentifiers":{"DECIMALS()":"2e0f2625","allowance(address,address)":"dd62ed3e","approve(address,uint256)":"095ea7b3","balanceOf(address)":"70a08231","burn(address,uint256)":"9dc29fac","burn(uint256)":"42966c68","burnFrom(address,uint256)":"79cc6790","decimals()":"313ce567","mint(address,uint256)":"40c10f19","name()":"06fdde03","owner()":"8da5cb5b","pause()":"8456cb59","paused()":"5c975abb","renounceOwnership()":"715018a6","symbol()":"95d89b41","totalSupply()":"18160ddd","transfer(address,uint256)":"a9059cbb","transferFrom(address,address,uint256)":"23b872dd","transferOwnership(address)":"f2fde38b","unpause()":"3f4ba83a"},"id":39}